{
    "_format": "hh-sol-artifact-1",
    "contractName": "MultiCallRead",
    "sourceName": "contracts/MultiCallRead.sol",
    "abi": [
        {
            "inputs": [
                {
                    "components": [
                        {
                            "internalType": "address",
                            "name": "target",
                            "type": "address"
                        },
                        {
                            "internalType": "bool",
                            "name": "allowFailure",
                            "type": "bool"
                        },
                        {
                            "internalType": "bytes",
                            "name": "callData",
                            "type": "bytes"
                        }
                    ],
                    "internalType": "struct MultiCallRead.Call3[]",
                    "name": "calls",
                    "type": "tuple[]"
                }
            ],
            "name": "multiCall",
            "outputs": [
                {
                    "internalType": "bytes[]",
                    "name": "results",
                    "type": "bytes[]"
                }
            ],
            "stateMutability": "view",
            "type": "function"
        }
    ],
    "bytecode": "0x608060405234801561001057600080fd5b5061046a806100206000396000f3fe608060405234801561001057600080fd5b506004361061002b5760003560e01c80632ee2bf9f14610030575b600080fd5b61004361003e366004610231565b610059565b60405161005091906102a6565b60405180910390f35b60608167ffffffffffffffff81111561007457610074610338565b6040519080825280602002602001820160405280156100a757816020015b60608152602001906001900390816100925790505b50905060005b8281101561022a576000808585848181106100ca576100ca61034e565b90506020028101906100dc9190610364565b6100ea906020810190610384565b6001600160a01b03168686858181106101055761010561034e565b90506020028101906101179190610364565b6101259060408101906103b4565b604051610133929190610402565b600060405180830381855afa9150503d806000811461016e576040519150601f19603f3d011682016040523d82523d6000602084013e610173565b606091505b509150915085858481811061018a5761018a61034e565b905060200281019061019c9190610364565b6101ad906040810190602001610412565b61020257816102025760405162461bcd60e51b815260206004820152601a60248201527f4d756c746943616c6c526561643a2063616c6c206661696c6564000000000000604482015260640160405180910390fd5b808484815181106102155761021561034e565b602090810291909101015250506001016100ad565b5092915050565b6000806020838503121561024457600080fd5b823567ffffffffffffffff8082111561025c57600080fd5b818501915085601f83011261027057600080fd5b81358181111561027f57600080fd5b8660208260051b850101111561029457600080fd5b60209290920196919550909350505050565b6000602080830181845280855180835260408601915060408160051b87010192508387016000805b8381101561032a57888603603f1901855282518051808852835b81811015610303578281018a01518982018b015289016102e8565b508781018901849052601f01601f19169096018701955093860193918601916001016102ce565b509398975050505050505050565b634e487b7160e01b600052604160045260246000fd5b634e487b7160e01b600052603260045260246000fd5b60008235605e1983360301811261037a57600080fd5b9190910192915050565b60006020828403121561039657600080fd5b81356001600160a01b03811681146103ad57600080fd5b9392505050565b6000808335601e198436030181126103cb57600080fd5b83018035915067ffffffffffffffff8211156103e657600080fd5b6020019150368190038213156103fb57600080fd5b9250929050565b8183823760009101908152919050565b60006020828403121561042457600080fd5b813580151581146103ad57600080fdfea264697066735822122046858418ebabe83b9c38f2bd51a7ad06c45ed0677381729883f9ac87979f9c5964736f6c63430008180033",
    "linkReferences": {},
    "deployedLinkReferences": {}
}